:020000040800F2
:10000000735040307350403481400141814101427E
:1000100081420143814301448144014581450146B8
:100020008146014781470148814801498149014A88
:10003000814A014B814B014C814C014D814D014E58
:10004000814E014F814F970100189381A17B732648
:1000500040F1B70200009382020063E8C202175128
:100060000018130121FAB712000093820280B30234
:10007000560233015140330401009702000093827D
:100080002208739052306F00600001A0411106C633
:1000900022C4000897000000E780A02921C997002A
:1000A0000000E78000283705002013054500B7054C
:1000B00000209385050063F7A50023A005009105A6
:1000C000E3EDA5FE3705002013050500B705002068
:1000D0009385050063FCA500370600081306067922
:1000E000144294C111069105E3ECA5FE97000000AF
:1000F000E780E00997000000E78060F9397106C0E9
:1001000016C21AC41EC672C876CA7ACC7ECE2AD04F
:100110002ED232D436D63AD83EDA42DC46DEEF0072
:10012000A002824092422243B243424ED24E624FDC
:10013000F24F025592552256B2564257D257625844
:10014000F258216173002030411106C622C4000814
:1001500097000000E780E01C97000000E780802007
:10016000232AA4FE130544FFAD4535468D4697006E
:100170000000E780A020032544FF97000000E780EF
:10018000C01E2244B24041018280797106D622D439
:1001900026D24AD04ECE52CC001897000000E780FD
:1001A000601C232EA4FC214597000000E780A01CC2
:1001B00097000000E780202B37050020034505004D
:1001C000814451C91305C4FD8D4597000000E780A7
:1001D000C02559EDC5C4130904FE4A8597000000E7
:1001E000E7804011AA89232E04FC130AC4FD52851E
:1001F00097000000E780400D0325C4FD23ACA90053
:100200004A8597000000E780A00DB74534449385E8
:1002100045444CC14A8597000000E780600CAA84E1
:10022000232E04FC528597000000E780E00603259A
:10023000C4FD88C84A8597000000E780600AAA8448
:10024000232E04FC528597000000E78060060325FA
:10025000C4FDC8C8C1B797000000E780E00A854424
:100260001305C4FD8D4597000000E780001C3DD1BB
:10027000214597000000E780A00FB1FC370500087A
:100280001305855A97000000E780E02197000000E1
:10029000E780E0DF411106C622C400080C41096670
:1002A000D18D0CC12244B24041018280411106C669
:1002B00022C400080C410966D18D0CC12244B24011
:1002C00041018280411106C622C400080C4193E519
:1002D00005010CC12244B24041018280411106C691
:1002E00022C40008371501402244B24041018280F7
:1002F000411106C622C40008371502402244B2400C
:1003000041018280411106C622C400083705002041
:1003100085452300B5002244B2404101828041114D
:1003200006C622C400082244B24041018280411125
:1003300006C622C4000897000000E780400211C5ED
:1003400097000000E7804001E5BF05452244B24028
:1003500041018280730050108280732540F18280B9
:100360007325003082807310053082807320053041
:100370008280733005308280411106C622C4000895
:100380007D476362B70413070002636AC70463F41E
:10039000C506B387C5407D57B357F70063E9D70655
:1003A0003306C0403356C7003317B700798E134663
:1003B000F6FF1841798EB395B600D18D0CC1224459
:1003C000B24041018280370500081305C5699700D6
:1003D0000000E780400D97000000E78040CB370524
:1003E00000081305856E97000000E780C00B97009A
:1003F0000000E780C0C9370500081305C5729700E3
:100400000000E780400A97000000E78040C83705F9
:1004100000081305857697000000E780C008970064
:100420000000E780C0C6411106C622C400087D4610
:10043000636DB6000546B315B60008416D8D3335C2
:10044000A0002244B2404101828037050008130514
:10045000056597000000E780000597000000E78031
:1004600000C3411106C622C400082244B240410123
:100470008280411106C622C400082244B2404101D4
:100480008280411106C622C40008375513CA1305DD
:10049000A52BB7952D749385E5472244B2404101C1
:1004A0008280397106DE22DC80000C4550451449FB
:1004B00058491C4148412322A4FE2320F4FE37055D
:1004C000000813050578232CA4FC232E04FC232804
:1004D00004FC05452326A4FC130504FE2324A4FCE8
:1004E000232AE4FE2328D4FE2326C4FE2324B4FEBC
:1004F000130584FC930584FE97000000E78000014B
:1005000097000000E780A0B8797106D622D40018C1
:100510009041D4419845CC452328B4FE2326E4FEDF
:100520002324D4FE2322C4FE2320A4FE3705000882
:1005300013050578232EA4FC37050008130505785C
:10054000232CA4FC130584FD97000000E780000124
:1005500097000000E780A0B3411106C622C400083E
:060560000F00300301A0B2
:1005680063616C6C656420604F7074696F6E3A3AB1
:10057800756E77726170282960206F6E2061206027
:100588004E6F6E65602076616C75657372632F6C53
:100598006962636F72652F6F7074696F6E2E727304
:1005A800680500082B0000009305000815000000EE
:1005B8005B01000015000000617373657274696F58
:1005C8006E206661696C65643A20626974203C201B
:1005D80053656C663A3A6269745F6C656E677468F5
:1005E8002829433A5C55736572735C6C756F6A6948
:1005F8006136355C2E636172676F5C72656769731B
:100608007472795C7372635C6D6972726F72732E47
:10061800757374632E6564752E636E2D3631656649
:100628003665306364303666623962385C62697494
:100638005F6669656C642D302E392E305C73726389
:100648005C6C69622E727300C00500082A00000005
:10065800EA0500086500000006010000010000002E
:10066800617373657274696F6E206661696C656425
:100678003A2072616E67652E7374617274203C2033
:1006880053656C663A3A6269745F6C656E67746844
:10069800282900006806000832000000EA05000862
:1006A8006500000006010000010000006173736529
:1006B8007274696F6E206661696C65643A20726154
:1006C8006E67652E656E64203C3D2053656C663A06
:1006D8003A6269745F6C656E677468282900000067
:1006E800B406000831000000EA05000865000000B3
:1006F8000601000001000000617373657274696F80
:100708006E206661696C65643A2072616E67652E59
:100718007374617274203C2072616E67652E656E19
:10072800640000000007000829000000EA0500082E
:1007380065000000060100000100000076616C758C
:100748006520646F6573206E6F7420666974206914
:100758006E746F206269742072616E6765000000B4
:100768004407000821000000EA05000865000000B1
:1007780006010000010000007204000800000000EB
:080788000100000082040008DA
:0400000508000000EF
:00000001FF
