:020000040800F2
:10000000735040307350403481400141814101427E
:1000100081420143814301448144014581450146B8
:100020008146014781470148814801498149014A88
:10003000814A014B814B014C814C014D814D014E58
:10004000814E014F814F970100189381A17B732648
:1000500040F1B70200009382020063E8C202175128
:100060000018130121FAB712000093820280B30234
:10007000560233015140330401009702000093827D
:100080002208739052306F00600001A0411106C633
:1000900022C4000897000000E780002621C99700CD
:1000A0000000E78060243705002013054500B705F0
:1000B00000209385050063F7A50023A005009105A6
:1000C000E3EDA5FE3705002013050500B705002068
:1000D0009385050063FCA5003706000813064675E6
:1000E000144294C111069105E3ECA5FE97000000AF
:1000F000E780E00997000000E78060F9397106C0E9
:1001000016C21AC41EC672C876CA7ACC7ECE2AD04F
:100110002ED232D436D63AD83EDA42DC46DEEF0072
:10012000A002824092422243B243424ED24E624FDC
:10013000F24F025592552256B2564257D257625844
:10014000F258216173002030411106C622C4000814
:1001500097000000E780401997000000E780E01C4E
:10016000232AA4FE130544FFAD4535468D4697006E
:100170000000E780001D032544FF97000000E78092
:10018000201B2244B24041018280797106D622D4DC
:1001900026D24AD0001897000000E78000192322D9
:1001A000A4FE214597000000E78040199700000059
:1001B000E780C027370500200345050081442DC98D
:1001C000130544FE8D4597000000E780602235ED61
:1001D000D9C0130984FE4A8597000000E780E00D2E
:1001E000AA84232E04FC1305C4FD97000000E780B9
:1001F000C0090325C4FD88CC4A8597000000E7802C
:10020000400AB7454444938545430CC14A8597004D
:100210000000E7800009AA84232004FE130504FEE1
:1002200097000000E780E004032504FE88C801A0D1
:1002300097000000E780A0098544130544FE8D4522
:1002400097000000E780C01A41D5214597000000C3
:10025000E780600EBDFC370500081305C556970002
:100260000000E780A02097000000E78040E24111F5
:1002700006C622C400080C4193E525000CC12244A7
:10028000B24041018280411106C622C400080C41DF
:1002900093E545000CC12244B240410182804111E6
:1002A00006C622C400083715014013050580224404
:1002B000B24041018280411106C622C400083715B0
:1002C00002402244B24041018280411106C622C44C
:1002D00000083705002085452300B5002244B240C0
:1002E00041018280411106C622C400082244B24066
:1002F00041018280411106C622C400089700000017
:10030000E780400211C597000000E7804001E5BF8B
:1003100005452244B2404101828073005010828022
:10032000732540F182807325003082807310053080
:1003300082807320053082807330053082804111C5
:1003400006C622C400087D476362B7041307000293
:10035000636AC70463F4C506B387C5407D57B357C6
:10036000F70063E9D7063306C0403356C70033179A
:10037000B700798E1346F6FF1841798EB395B60013
:10038000D18D0CC12244B240410182803705000862
:100390001305056697000000E780400D97000000F8
:1003A000E780E0CE370500081305C56A9700000016
:1003B000E780C00B97000000E78060CD370500089C
:1003C0001305056F97000000E780400A97000000C2
:1003D000E780E0CB370500081305C57297000000E1
:1003E000E780C00897000000E78060CA411106C698
:1003F00022C400087D46636DB6000546B315B600FD
:1004000008416D8D3335A0002244B2404101828005
:10041000370500081305456197000000E7800005D7
:1004200097000000E780A0C6411106C622C400085C
:100430002244B24041018280411106C622C4000814
:100440002244B24041018280411106C622C4000804
:10045000375513CA1305A52BB7952D749385E5471A
:100460002244B24041018280397106DE22DC8000E4
:100470000C455045144958491C4148412322A4FECB
:100480002320F4FE3705000813054574232CA4FC33
:10049000232E04FC232804FC05452326A4FC130575
:1004A00004FE2324A4FC232AE4FE2328D4FE2326CE
:1004B000C4FE2324B4FE130584FC930584FE970038
:1004C0000000E780000197000000E78040BC7971E0
:1004D00006D622D400189041D4419845CC45232813
:1004E000B4FE2326E4FE2324D4FE2322C4FE2320CC
:1004F000A4FE3705000813054574232EA4FC370518
:10050000000813054574232CA4FC130584FD9700F3
:100510000000E780000197000000E78040B741112C
:0C05200006C622C400080F00300301A032
:10052C0063616C6C656420604F7074696F6E3A3AED
:10053C00756E77726170282960206F6E2061206063
:10054C004E6F6E65602076616C75657372632F6C8F
:10055C006962636F72652F6F7074696F6E2E727340
:10056C002C0500082B0000005705000815000000A2
:10057C005B01000015000000617373657274696F94
:10058C006E206661696C65643A20626974203C2057
:10059C0053656C663A3A6269745F6C656E67746831
:1005AC002829433A5C55736572735C6C756F6A6984
:1005BC006136355C2E636172676F5C726567697357
:1005CC007472795C7372635C6D6972726F72732E84
:1005DC00757374632E6564752E636E2D3631656686
:1005EC003665306364303666623962385C626974D1
:1005FC005F6669656C642D302E392E305C737263C6
:10060C005C6C69622E727300840500082A0000007D
:10061C00AE050008650000000601000001000000A6
:10062C00617373657274696F6E206661696C656461
:10063C003A2072616E67652E7374617274203C206F
:10064C0053656C663A3A6269745F6C656E67746880
:10065C00282900002C06000832000000AE05000816
:10066C006500000006010000010000006173736565
:10067C007274696F6E206661696C65643A20726190
:10068C006E67652E656E64203C3D2053656C663A42
:10069C003A6269745F6C656E6774682829000000A3
:1006AC007806000831000000AE0500086500000067
:1006BC000601000001000000617373657274696FBC
:1006CC006E206661696C65643A2072616E67652E96
:1006DC007374617274203C2072616E67652E656E56
:1006EC0064000000C406000829000000AE050008E4
:1006FC0065000000060100000100000076616C75C9
:10070C006520646F6573206E6F7420666974206950
:10071C006E746F206269742072616E6765000000F0
:10072C000807000821000000AE0500086500000065
:10073C000601000001000000380400080000000061
:08074C00010000004804000850
:0400000508000000EF
:00000001FF
