:020000040800F2
:10000000735040307350403481400141814101427E
:1000100081420143814301448144014581450146B8
:100020008146014781470148814801498149014A88
:10003000814A014B814B014C814C014D814D014E58
:10004000814E014F814F970100189381A17B732648
:1000500040F1B70200009382020063E8C202175128
:100060000018130121FAB712000093820280B30234
:10007000560233015140330401009702000093827D
:100080002208739052306F00600001A0411106C633
:1000900022C4000897000000E780202A21C99700A9
:1000A0000000E78080283705002013054500B705CC
:1000B00000209385050063F7A50023A005009105A6
:1000C000E3EDA5FE3705002013050500B705002068
:1000D0009385050063FCA5003706000813068679A2
:1000E000144294C111069105E3ECA5FE97000000AF
:1000F000E780E00997000000E78060F9397106C0E9
:1001000016C21AC41EC672C876CA7ACC7ECE2AD04F
:100110002ED232D436D63AD83EDA42DC46DEEF0072
:10012000A002824092422243B243424ED24E624FDC
:10013000F24F025592552256B2564257D257625844
:10014000F258216173002030411106C622C4000814
:1001500097000000E780601D97000000E780002105
:10016000232AA4FE130544FFAD4535468D4697006E
:100170000000E7802021032544FF97000000E7806E
:10018000401F2244B24041018280011106CE22CCA0
:1001900026CA4AC8001097000000E780201D2322CD
:1001A000A4FE214597000000E780601D9700000035
:1001B000E780E02B3705002003450500814451CD41
:1001C000130544FE8D4597000000E78080265DE121
:1001D000C5C8130984FE4A8597000000E780001215
:1001E000AA84232204FE130544FE97000000E78042
:1001F000E00D032544FE88CC4A8597000000E78087
:10020000600EB7454444938545330CC14A85970039
:100210000000E780200DAA84232204FE130544FE7B
:1002200097000000E7808007032544FE88C84A85C0
:1002300097000000E780000BAA84232204FE130528
:1002400044FE97000000E780E006032544FEC8C88E
:1002500097000000E780C010E5BF97000000E7802E
:10026000200B8544130544FE8D4597000000E78070
:10027000401C39DD214597000000E780E00FB1F810
:10028000370500081305055B97000000E780202272
:1002900097000000E780A0DF411106C622C40008D5
:1002A0000C4193E525000CC12244B24041018280FB
:1002B000411106C622C400080C4193E545000CC15B
:1002C0002244B24041018280411106C622C4000886
:1002D0000C4193E545000CC12244B24041018280AB
:1002E000411106C622C400083715014013050580D8
:1002F0002244B24041018280411106C622C4000856
:10030000371502402244B24041018280411106C6A5
:1003100022C400083705002085452300B50022448B
:10032000B24041018280411106C622C40008224425
:10033000B24041018280411106C622C400089700E4
:100340000000E780400211C597000000E7804001EF
:10035000E5BF05452244B240410182807300501040
:100360008280732540F18280732500308280731073
:1003700005308280732005308280733005308280A2
:10038000411106C622C400087D476362B704130703
:100390000002636AC70463F4C506B387C5407D578E
:1003A000B357F70063E9D7063306C0403356C7009A
:1003B0003317B700798E1346F6FF1841798EB3953F
:1003C000B600D18D0CC12244B24041018280370574
:1003D00000081305456A97000000E780400D97006C
:1003E0000000E780C0CA370500081305056F9700B5
:1003F0000000E780C00B97000000E78040C9370588
:1004000000081305457397000000E780400A970035
:100410000000E780C0C7370500081305057797007F
:100420000000E780C00897000000E78040C6411147
:1004300006C622C400087D46636DB6000546B315A6
:10044000B60008416D8D3335A0002244B240410111
:100450008280370500081305856597000000E78056
:10046000000597000000E78080C2411106C622C443
:1004700000082244B24041018280411106C622C4D4
:1004800000082244B24041018280411106C622C4C4
:100490000008375513CA1305A52BB7952D749385FE
:1004A000E5472244B24041018280397106DE22DCF8
:1004B00080000C455045144958491C4148412322AD
:1004C000A4FE2320F4FE3705000813058578232CAD
:1004D000A4FC232E04FC232804FC05452326A4FCAD
:1004E000130504FE2324A4FC232AE4FE2328D4FEBF
:1004F0002326C4FE2324B4FE130584FC930584FE46
:1005000097000000E780000197000000E78020B816
:10051000797106D622D400189041D4419845CC4533
:100520002328B4FE2326E4FE2324D4FE2322C4FE83
:100530002320A4FE3705000813058578232EA4FC8C
:100540003705000813058578232CA4FC130584FDCA
:1005500097000000E780000197000000E78020B3CB
:0E056000411106C622C400080F00300301A09E
:1005700063616C6C656420604F7074696F6E3A3AA9
:10058000756E77726170282960206F6E206120601F
:100590004E6F6E65602076616C75657372632F6C4B
:1005A0006962636F72652F6F7074696F6E2E7273FC
:1005B000700500082B0000009B05000815000000D6
:1005C0005B01000015000000617373657274696F50
:1005D0006E206661696C65643A20626974203C2013
:1005E00053656C663A3A6269745F6C656E677468ED
:1005F0002829433A5C55736572735C6C756F6A6940
:100600006136355C2E636172676F5C726567697312
:100610007472795C7372635C6D6972726F72732E3F
:10062000757374632E6564752E636E2D3631656641
:100630003665306364303666623962385C6269748C
:100640005F6669656C642D302E392E305C73726381
:100650005C6C69622E727300C80500082A000000F5
:10066000F20500086500000006010000010000001E
:10067000617373657274696F6E206661696C65641D
:100680003A2072616E67652E7374617274203C202B
:1006900053656C663A3A6269745F6C656E6774683C
:1006A000282900007006000832000000F20500084A
:1006B0006500000006010000010000006173736521
:1006C0007274696F6E206661696C65643A2072614C
:1006D0006E67652E656E64203C3D2053656C663AFE
:1006E0003A6269745F6C656E67746828290000005F
:1006F000BC06000831000000F2050008650000009B
:100700000601000001000000617373657274696F77
:100710006E206661696C65643A2072616E67652E51
:100720007374617274203C2072616E67652E656E11
:10073000640000000807000829000000F205000816
:1007400065000000060100000100000076616C7584
:100750006520646F6573206E6F742066697420690C
:100760006E746F206269742072616E6765000000AC
:100770004C07000821000000F20500086500000099
:1007800006010000010000007A04000800000000DB
:08079000010000008A040008CA
:0400000508000000EF
:00000001FF
